{
  "_format": "hh-sol-artifact-1",
  "contractName": "RedPacket",
  "sourceName": "src/RedPacket.sol",
  "abi": [
    {
      "anonymous": false,
      "inputs": [
        {
          "indexed": true,
          "internalType": "uint256",
          "name": "id",
          "type": "uint256"
        },
        {
          "indexed": true,
          "internalType": "address",
          "name": "user",
          "type": "address"
        },
        {
          "indexed": false,
          "internalType": "uint256",
          "name": "amount",
          "type": "uint256"
        }
      ],
      "name": "RedPacketClaimed",
      "type": "event"
    },
    {
      "anonymous": false,
      "inputs": [
        {
          "indexed": true,
          "internalType": "uint256",
          "name": "id",
          "type": "uint256"
        },
        {
          "indexed": true,
          "internalType": "address",
          "name": "sender",
          "type": "address"
        },
        {
          "indexed": false,
          "internalType": "uint256",
          "name": "amount",
          "type": "uint256"
        },
        {
          "indexed": false,
          "internalType": "uint256",
          "name": "count",
          "type": "uint256"
        }
      ],
      "name": "RedPacketCreated",
      "type": "event"
    },
    {
      "anonymous": false,
      "inputs": [
        {
          "indexed": true,
          "internalType": "uint256",
          "name": "id",
          "type": "uint256"
        }
      ],
      "name": "RedPacketFinished",
      "type": "event"
    },
    {
      "inputs": [
        {
          "internalType": "uint256",
          "name": "id",
          "type": "uint256"
        }
      ],
      "name": "claimRedPacket",
      "outputs": [],
      "stateMutability": "nonpayable",
      "type": "function"
    },
    {
      "inputs": [
        {
          "internalType": "uint256",
          "name": "count",
          "type": "uint256"
        }
      ],
      "name": "createRedPacket",
      "outputs": [
        {
          "internalType": "uint256",
          "name": "id",
          "type": "uint256"
        }
      ],
      "stateMutability": "payable",
      "type": "function"
    },
    {
      "inputs": [
        {
          "internalType": "uint256",
          "name": "id",
          "type": "uint256"
        }
      ],
      "name": "getPacket",
      "outputs": [
        {
          "internalType": "address",
          "name": "sender",
          "type": "address"
        },
        {
          "internalType": "uint256",
          "name": "total",
          "type": "uint256"
        },
        {
          "internalType": "uint256",
          "name": "remaining",
          "type": "uint256"
        },
        {
          "internalType": "uint256",
          "name": "remainingCount",
          "type": "uint256"
        },
        {
          "internalType": "bool",
          "name": "finished",
          "type": "bool"
        }
      ],
      "stateMutability": "view",
      "type": "function"
    },
    {
      "inputs": [
        {
          "internalType": "uint256",
          "name": "id",
          "type": "uint256"
        },
        {
          "internalType": "address",
          "name": "user",
          "type": "address"
        }
      ],
      "name": "hasClaimed",
      "outputs": [
        {
          "internalType": "bool",
          "name": "",
          "type": "bool"
        }
      ],
      "stateMutability": "view",
      "type": "function"
    },
    {
      "inputs": [],
      "name": "nextId",
      "outputs": [
        {
          "internalType": "uint256",
          "name": "",
          "type": "uint256"
        }
      ],
      "stateMutability": "view",
      "type": "function"
    }
  ],
  "bytecode": "0x60806040526001600055600160025534801561001a57600080fd5b506107db8061002a6000396000f3fe60806040526004361061004a5760003560e01c806361b8ce8c1461004f5780636656432e14610078578063873f6f9e1461009a5780638d4b67a6146100ca578063a59455dc146100dd575b600080fd5b34801561005b57600080fd5b5061006560005481565b6040519081526020015b60405180910390f35b34801561008457600080fd5b506100986100933660046106d9565b61016c565b005b3480156100a657600080fd5b506100ba6100b53660046106f2565b610500565b604051901515815260200161006f565b6100656100d83660046106d9565b610579565b3480156100e957600080fd5b506101386100f83660046106d9565b6000908152600160208190526040909120805491810154600282015460038301546004909301546001600160a01b0390941694919390929160ff90911690565b604080516001600160a01b03909616865260208601949094529284019190915260608301521515608082015260a00161006f565b6002546001146101af5760405162461bcd60e51b815260206004820152600960248201526814915153951490539560ba1b60448201526064015b60405180910390fd5b60028055600081815260016020526040902080546001600160a01b03166102045760405162461bcd60e51b81526020600482015260096024820152681b9bdd08199bdd5b9960ba1b60448201526064016101a6565b600481015460ff16156102445760405162461bcd60e51b8152602060048201526008602482015267199a5b9a5cda195960c21b60448201526064016101a6565b60008160030154116102845760405162461bcd60e51b81526020600482015260096024820152681b9bdb99481b19599d60ba1b60448201526064016101a6565b33600090815260058201602052604090205460ff16156102d85760405162461bcd60e51b815260206004820152600f60248201526e185b1c9958591e4818db185a5b5959608a1b60448201526064016101a6565b600081600301546001036102f15750600281015461039c565b6000600183600301546103049190610744565b83600201546103139190610744565b9050600042443386600201548760030154604051602001610368959493929190948552602085019390935260609190911b6bffffffffffffffffffffffff191660408401526054830152607482015260940190565b60408051601f198184030181529190528051602090910120905061038c8282610757565b610397906001610779565b925050505b3360009081526005830160205260408120805460ff191660011790556002830180548392906103cc908490610744565b9250508190555060018260030160008282546103e89190610744565b9091555050604051600090339083908381818185875af1925050503d806000811461042f576040519150601f19603f3d011682016040523d82523d6000602084013e610434565b606091505b50509050806104775760405162461bcd60e51b815260206004820152600f60248201526e1d1c985b9cd9995c8819985a5b1959608a1b60448201526064016101a6565b604051828152339085907f35d644614009c0a33ec77a511c3b74a5eb804fc664529a6c778562dd6b87fade9060200160405180910390a382600301546000036104f55760048301805460ff1916600117905560405184907f2b8bbcb66a95025d31a9c9d101f9cc4301e3f75f9e6d9c3f7d5deb178706273890600090a25b505060016002555050565b600082815260016020526040812080546001600160a01b03166105515760405162461bcd60e51b81526020600482015260096024820152681b9bdd08199bdd5b9960ba1b60448201526064016101a6565b6001600160a01b03831660009081526005909101602052604090205460ff1690505b92915050565b60008082116105b45760405162461bcd60e51b81526020600482015260076024820152660636f756e743d360cc1b60448201526064016101a6565b600034116105ef5760405162461bcd60e51b81526020600482015260086024820152676e6f2076616c756560c01b60448201526064016101a6565b8134101561063f5760405162461bcd60e51b815260206004820152601e60248201527f76616c7565203c20636f756e7420286d696e203120776569206561636829000060448201526064016101a6565b60008054908061064e8361078c565b9091555060008181526001602081815260409283902080546001600160a01b03191633908117825534938201849055600282018490556003820188905560048201805460ff1916905584519384529183018790529394509184917f680e257dda79cd07165570434d5cd2ff8221d3f4d092abfc2a09a555440e93ee910160405180910390a350919050565b6000602082840312156106eb57600080fd5b5035919050565b6000806040838503121561070557600080fd5b8235915060208301356001600160a01b038116811461072357600080fd5b809150509250929050565b634e487b7160e01b600052601160045260246000fd5b818103818111156105735761057361072e565b60008261077457634e487b7160e01b600052601260045260246000fd5b500690565b808201808211156105735761057361072e565b60006001820161079e5761079e61072e565b506001019056fea264697066735822122038c892e2e143743edfcf2fc235513948188b7684e3737721f70406c8376c702f64736f6c63430008180033",
  "linkReferences": {},
  "deployedLinkReferences": {}
}